:020000040800F2
:10000000A0A8002045010008250B0008270B0008C8
:100010002B0B00082F0B0008330B0008000000001A
:10002000000000000000000000000000370B000886
:10003000390B000800000000E7B50008F9B400081B
:100040005F0100085F0100085F0100085F01000810
:100050005F0100085F0100085F0100085F01000800
:100060005F0100085F0100085F0100085F010008F0
:100070005F0100085F0100085F0100085F010008E0
:100080005F0100085F0100085F0100085F010008D0
:100090005F0100085F0100085F0100085F010008C0
:1000A0005F0100085F0100085F0100085F010008B0
:1000B0005F0100085F0100085F0100085F010008A0
:1000C0005F0100085F0100085F0100085F01000890
:1000D0005F0100085F0100085F0100085F01000880
:1000E0005F0100085F0100085F0100085F01000870
:1000F0005F0100085F0100085F0100085F01000860
:100100005F0100085F0100085F0100085F0100084F
:100110005F0100085F0100085F0100085F0100083F
:100120005F0100085F0100085F0100085F0100082F
:10013000DFF80CD00BF034FA00480047990C0008A7
:10014000A0A800200648804706480047FEE7FEE7D3
:10015000FEE7FEE7FEE7FEE7FEE7FEE7FEE7FEE777
:1001600047020008310100080CB500200190009002
:100170006C48006840F480306A49086000BF6948F4
:10018000006800F4003000900198401C0190009835
:1001900018B90198B0F5A06FF1D16248006800F479
:1001A000003010B10120009001E000200090009884
:1001B000012843D15C48006840F010005A490860AB
:1001C0000846006820F0030008600846006840F018
:1001D0000200086053484068524948600846406839
:1001E00048600846406840F48060486008464068BF
:1001F00020F47C1048600846406840F4E8104860ED
:100200000846006840F08070086000BF45480068FC
:1002100000F000700028F9D04248406820F0030048
:10022000404948600846406840F00200486000BF0E
:100230003C48406800F00C000828F9D10CBD10B50E
:10024000FFF792FF10BD10B53648006840F001007E
:1002500034490860084640683449084031494860DC
:1002600008460068324908402E4908600846006880
:1002700020F4802008600846406820F4FE004860B2
:100280004FF41F008860FFF7DAFF4FF00060294944
:10029000086010BD10B5002100200022214B5B68D2
:1002A00003F00C0121B1042906D0082928D107E068
:1002B000214B224C236027E01F4B204C236023E07E
:1002C000184B5B6803F47010164B5B6803F48032C4
:1002D000022303EB904022B9194B4343174C236090
:1002E0000DE0104B5B6803F4003323B1144B434320
:1002F000124C236003E0104B4343104C236003E097
:100300000D4B0E4C236000BF00BF064B5B68C3F370
:1003100003130C4CE15C094B1B68CB40074C23607A
:1003200010BD000000100240002002400000FFF855
:10033000FFFFF6FE08ED00E000127A00000000204A
:1003400000093D000400002031490143314A116099
:10035000704770B5002100230F22C47804B32D4CE0
:10036000246804F4E064C4F5E064210AC1F10403E4
:10037000CA40447804FA03F1847814402143090107
:10038000254C0678A155047804F01F050124AC40E3
:1003900005786D11AD0005F1E025C5F8004109E0D3
:1003A000047804F01F050124AC401C4D067876113A
:1003B00045F8264070BD1A4A0A400243154B1B1FE0
:1003C0001A60704739B1134A121D12680243114B6B
:1003D0001B1D1A6006E00F4A121D126882430D4B66
:1003E0001B1D1A607047042808D14FF0E0210969ED
:1003F00041F004014FF0E022116107E04FF0E021ED
:10040000096921F004014FF0E022116170470000FA
:100410000000FA050CED00E000E400E080E100E0FF
:1004200080FFFF1F10B50446CC48844208D101214B
:10043000042000F02DFB0021042000F029FB46E001
:10044000C748844208D10121082000F021FB002187
:10045000082000F01DFB3AE0C248844208D1012187
:10046000102000F015FB0021102000F011FB2EE001
:10047000BD48844208D10121202000F009FB002161
:10048000202000F005FB22E0B848844208D1012179
:10049000402000F0FDFA0021402000F0F9FA16E0BB
:1004A000B348844208D10121802000F0F1FA0021F4
:1004B000802000F0EDFA0AE0AE48844207D1012125
:1004C000801500F0E5FA0021A01500F0E1FA10BD5A
:1004D00010B50121084600F0DBFA0021012000F0F0
:1004E000D7FA10BD2DE9F041024600250026002074
:1004F00000230024002791F803C00CF00F0591F8A9
:1005000003C00CF0100CBCF1000F03D091F802C036
:100510004CEA050591F800C0BCF1000F31D0146819
:1005200000202BE04FF0010C0CFA00F3B1F800C0F2
:100530000CEA03069E4220D183004FF00F0C0CFA08
:1005400003F7BC4305FA03FC4CEA040491F803C02A
:10055000BCF1280F06D14FF0010C0CFA00FCC2F8D8
:1005600014C00AE091F803C0BCF1480F05D14FF068
:10057000010C0CFA00FCC2F810C0401C0828D1D3B2
:100580001460B1F800C0BCF1FF0F34DD54680020E6
:100590002EE000F1080C4FF0010808FA0CF3B1F856
:1005A00000C00CEA03069E4221D183004FF00F0CDD
:1005B0000CFA03F7BC4305FA03FC4CEA040491F877
:1005C00003C0BCF1280F05D100F1080C08FA0CF8A3
:1005D000C2F8148091F803C0BCF1480F07D100F1B4
:1005E000080C4FF0010808FA0CF8C2F81080401C03
:1005F0000828CED35460BDE8F0814FF6FF7101802A
:10060000022181700421C170704702460020936866
:100610000B400BB1012000E00020704701468868C4
:1006200080B2704702460020D3680B400BB1012016
:1006300000E0002070470146C86880B27047016141
:100640007047416170470AB1016100E04161704744
:10065000C16070474FF480320A43826181618261D8
:1006600082698269704702460020434B18684FF642
:100670008073184040EA021008433F4B18607047EF
:100680003E49C8617047F0B50A46002300240021A6
:10069000002500F00046B6F1004F02D1364EF16958
:1006A00001E0354E7168C0F3034583B200F4401693
:1006B000B6F5401F08D121F070612F4E766826F004
:1006C00070662D4F7E6012E000F48016B6F5801F34
:1006D00006D1032606FA05F4A14341F0706106E055
:1006E000460D360103FA06F6B14341F0706122B1BE
:1006F000460D360103FA06F6314300F00046B6F126
:10070000004F02D11C4EF16101E01B4E7160F0BD43
:1007100030B500228B071C0F0F2303FA04F2164B8F
:1007200008338C1053F824309343134C08348D1045
:1007300044F8253023468C1053F824308C07240FBE
:1007400000FA04F423430C4C08348D1044F825308F
:1007500030BD0A49DC3108607047000000080140E4
:10076000000C01400010014000140140001801403D
:10077000001C014000200140000001400000204218
:10078000DF48006840F00100DD4908600846406825
:10079000DC490840DA49486008460068DA49084000
:1007A000D74908600846006820F4802008600846A1
:1007B000406820F4FE0048604FF41F0088607047D6
:1007C000CF49096821F48031CD4A1160114609688A
:1007D00021F480211160B0F5803F03D0B0F5802F67
:1007E0000ED106E0C649096841F48031C44A11605F
:1007F00007E0C349096841F4A021C14A116000E043
:1008000000BF00BF704710B5014600220023002042
:100810004A11012A02D1BA4C236806E0022A02D109
:10082000B74C236A01E0B64C636A01F01F02012451
:1008300094401C400CB1012000E0002010BD38B5F0
:10084000002000900024002500BF3120FFF7DBFFCF
:1008500005460098401C00900098B0F5A06F01D0AC
:10086000002DF2D03120FFF7CEFF08B1012400E0C7
:100870000024204638BD01460020A14A106820F01F
:10088000F80040EAC10010607047A0490860704756
:10089000024600209A4B586820F47C1042EA01037B
:1008A0001843974B5860704798490866704701464F
:1008B0000020934A506820F00300084350607047BE
:1008C0008F48406800F00C007047014600208C4AB9
:1008D000506820F0F0000843506070470146002047
:1008E000874A506820F4E060084350607047014632
:1008F0000020834A506820F4605040EAC1005060F4
:10090000704729B17E4A527A02437D4B5A7204E005
:100910007B4A527A82437A4B5A7270477B49D8316C
:100920000860704701460020754A506820F4404036
:100930000843506070470021714A20321170704A9C
:1009400082F82010012802D004280AD104E00121F5
:100950006B4A2032117005E00521694A203211707E
:1009600000E000BF00BF70476949086070476449F4
:10097000096A0143624A1162704765494439086057
:10098000704730B500210022002400235C4D6D68C3
:1009900005F00C0121B1042905D0082923D105E077
:1009A0005C4D056022E05B4D05601FE0544D6D68B5
:1009B00005F47012524D6D6805F48034022505EB84
:1009C00092421CB9544D554305600BE04C4D6D6887
:1009D00005F400351DB1504D5543056002E04D4D05
:1009E0005543056002E04B4D056000BF00BF444D1C
:1009F0006D6805F0F0010909484D6B5C0568DD4044
:100A000045603F4D6D6805F4E061090A434D6B5C3C
:100A10004568DD4085603A4D6D6805F46051C90A4E
:100A20003E4D6B5C4568DD40C560354D6D6805F435
:100A30004041890B3A4D6B5CC568B5FBF3F5056128
:100A400030BD29B12E4A526902432D4B5A6104E050
:100A50002B4A526982432A4B5A61704729B1284A6E
:100A600092690243264B9A6104E0254A92698243C7
:100A7000234B9A61704729B1214AD2690243204B26
:100A8000DA6104E01E4AD26982431D4BDA61704785
:100A900029B11B4AD2680243194BDA6004E0184AB4
:100AA000D2688243164BDA60704729B1144A126942
:100AB0000243134B1A6104E0114A12698243104B3E
:100AC0001A61704712494039086070470F49C8647D
:100AD00070470B49C87170470948406A40F0807000
:100AE00007494862704701460020054A92680A405B
:100AF0000AB1012000E00020704701498872704768
:100B0000001002400000FFF8FFFFF6FE0000424226
:100B10008004424200127A0000093D0014000020C7
:100B200024000020704700BFFEE700BFFEE700BFC3
:100B3000FEE700BFFEE770477047000008B516E00B
:100B40004FF480716648FFF76DFD28B14FF4807156
:100B50006348FFF776FD04E04FF480716048FFF7CB
:100B60006EFD6A4600214FF4FA7009F07BFCE7E75E
:100B700008B513E020215B48FFF754FD20B1202188
:100B80005848FFF75EFD03E020215648FFF757FD68
:100B90006A4600214FF47A7009F064FCEAE708B570
:100BA00013E020214E48FFF73DFD20B120214C48A5
:100BB000FFF747FD03E020214948FFF740FD6A4663
:100BC00000214FF4FA6009F04DFCEAE770B58AB0F5
:100BD000064600F0E7F800F0D5F900F0EDF804461D
:100BE00041480068B4FBF0F528460AF0A3FC00F089
:100BF00089FC09A806F010FF00F062FA09A8032199
:100C000000220592CDE90621089005204FF40071DD
:100C10003322364BCDE90132CDE903100320002306
:100C2000334A34A10090374807F02DFB09A803216F
:100C300000220592CDE90621089005204FF40071AD
:100C40003322314BCDE90132CDE9031003200023DB
:100C50002E4A2FA10090324807F015FB09A8032166
:100C600000220592CDE90621089005204FF400717D
:100C700033222C4BCDE90132CDE9031003200023B0
:100C8000294A2AA100902D4807F0FDFA09A92C480D
:100C900007F06AFC0AB070BD00B58BB000F082F8B6
:100CA0000AA802F0EFF90AA8032100220592CDE973
:100CB00006210890052080210C22224BCDE901322B
:100CC000CDE90310022000231F4A20A100901C48F8
:100CD00007F0D9FA0AA802F0B8FC00200BB000BD5A
:100CE000000C0140001801405CB8000840060020DC
:100CF0009F0B0008417070205461736B204C454479
:100D000030000000E8010020400E0020710B0008B8
:100D1000417070205461736B204C454431000000D9
:100D2000B0020020401600203D0B000841707020EA
:100D30005461736B204265657000000078030020E9
:100D40002001002040040020CD0B000841707020DD
:100D50005461736B205374617274000008B50121F3
:100D60004820FFF77BFE2020ADF8000003208DF81F
:100D7000020010208DF8030069460848FFF7B2FB17
:100D800069460748FFF7AEFB20210448FFF757FCF0
:100D900020210348FFF753FC08BD0000000C014070
:100DA0000018014010B54FF44070FFF7CDFAFFF77F
:100DB000D5FF00F027F810BD00B585B06846FFF7F5
:100DC000E0FD019805B000BD10B50C48006840F08A
:100DD00080700A4908600020094948600846006898
:100DE00040F001000860FFF7E7FF0446204600F0EE
:100DF00044F910BD0248406870470000FCED00E077
:100E0000001000E008B501210820FFF727FE4FF48D
:100E10008070ADF8000003208DF8020010208DF8DE
:100E2000030069460448FFF75DFB4FF480710248F8
:100E3000FFF707FC08BD0000000C014072B67047C8
:100E400062B67047EFF3108072B6704780F3108877
:100E5000704730BF704720BF7047B0FA80F07047CE
:100E600090FAA0F0B0FA80F0704790FAA0F07047C6
:100E700010B5FB480088401EF949088008460088E4
:100E8000A0B9FFF7B7FFF749086008460068F649C0
:100E90000968441AF5480068A04201D2F34804608A
:100EA000F3480068A04201D2F148046010BD10B5BB
:100EB000F0480088401CEF490880E948008818B9CC
:100EC000FFF798FFE8490860E5480088401CE449BE
:100ED000088010BD10B5002400BF00BFFFF7B2FFAF
:100EE000044600BFFFF7E3FF00BF1021E24800F017
:100EF00055FB00BFFFF7BCFF00BF2046FFF7A6FF72
:100F000000BF00BF10BD10B5FFF7E4FF10BD70B506
:100F100000260020D7490880D1490880D2490860BE
:100F2000D0490860D1490860D1490860D3490860B8
:100F3000002400BFFFF786FF064600BF00250BE038
:100F40000020CA490860FFF7B2FFFFF791FFC748CA
:100F500000680444681C85B2002DF1D0C7480460C5
:100F60000020C2490860C249086000BF3046FFF750
:100F70006DFF00BF70BD10B50020C1490860FFF7CC
:100F800023FF10BD10B5FFF7F6FFFFF7C0FFFFF717
:100F9000BAFF10BD00BFFEE770B505460C4600263F
:100FA00014B900BFFFF7F6FF15B90A20208070BD05
:100FB00000BF00BFFFF746FF064600BFFFF777FF01
:100FC00000BF1022AC49284601F07AFA00BFFFF7B3
:100FD0004FFF00BF3046FFF739FF00BF00BF0020C2
:100FE000208000BFE3E72DE9F04105460C460027CD
:100FF00014B900BFFFF7CEFF1DB90A202080BDE85D
:10100000F0811021284601F043FA0646102E19D22D
:1010100000BF00BFFFF716FF074600BFFFF747FFFF
:1010200000BF10222946944801F04AFA00BFFFF79A
:101030001FFF00BF3846FFF709FF00BF00BF0020B9
:10104000208002E04FF47A70208000BFD7E710B50F
:10105000FFF7D0FE0446204610BD704700B501469C
:1010600011B900BFFFF796FF854A106808B100224A
:1010700001E04FF4FA620A8000BD814908607047C0
:10108000014608467D4A1268904203D97B4A12689D
:10109000801A00E00020704770B5002500BFFFF700
:1010A000D1FE054600BF7148046800BF2846FFF71F
:1010B000CDFE00BF2046FFF7E3FF0646304670BD79
:1010C00070B50025FFF7E8FF044600BFFFF7BAFE42
:1010D000054600BF00206549086000BF2846FFF7AD
:1010E000B5FE00BF204670BD70B5002500BFFFF7FC
:1010F000A9FE054600BF5E48046800BF2846FFF70A
:10110000A5FE00BF2046FFF7BBFF0646304670BD78
:1011100070B505462846FFF7A0FE0446183C204659
:1011200070BD70B505462846FFF797FE0446103C93
:10113000204670BD70B505462846FFF78EFE044672
:1011400000BF204670BD30B502460B460024D2F1E8
:10115000FF359C4126D24FF6FF74D2F1FF359C41FA
:101160000FD26FF07F44D2F1FF359C4103D2190EAC
:10117000444C605C44E0190C424C645C04F108008F
:101180003EE0FF24D2F1FF359C4105D2190A3D4CC7
:10119000645C04F1100033E019463A4C645C04F1DD
:1011A00018002DE04FF6FF750024AD1A9C4115D2B2
:1011B0006FF07F450024AD1A9C4107D2140E44EA1B
:1011C0000321304C645C04F1200019E0140C44EA63
:1011D00003412C4C645C04F1280011E00024D2F19E
:1011E000FF059C4107D2140A44EA0361254C645C64
:1011F00004F1300004E01146224C645C04F1380034
:1012000030BD70B504460CB9082070BD2046FFF70C
:1012100027FE05462846F8E770B504460CB91020AD
:1012200070BD2046FFF71CFE05462846F8E770B55E
:1012300004460CB9202070BD2046FFF711FE05467C
:101240002846F8E72DE9F04304460D46002184EADC
:1012500001006940084317D14020BDE8F083000039
:101260002E00002034000020300000203C00002030
:10127000400000202C000020401E002038000020EC
:101280002800002066B60008E243E843521C40F103
:10129000000102EA040601EA050730463946FFF775
:1012A00052FF8046C8F13F094846D6E7014641292A
:1012B00003DB5A2901DC012200E00022012A08D0C8
:1012C000612903DB7A2901DC012200E00022012AE6
:1012D00001D1012200E00022104670470146412959
:1012E00003DB5A2901DC012200E00022012A08D098
:1012F000612903DB7A2901DC012200E00022012AB6
:1013000001D1012200E00022012A08D0302903DBAC
:10131000392901DC012200E00022012A01D1012249
:1013200000E00022104670470146612903DB7A295C
:1013300001DC012200E000221046704701464129ED
:1013400003DB5A2901DC012200E00022104670472D
:101350000146302903DB392901DC012200E00022AB
:10136000104670470146302903DB372901DC012292
:1013700000E00022104670470146302901DB392980
:1013800007DD412901DB462903DD612903DB6629ED
:1013900001DC012200E000221046704701462029AE
:1013A00001D0092901D1012200E000221046704736
:1013B0000146202909D00D2907D00A2905D00C297A
:1013C00003D0092901D00B2901D1012200E000221C
:1013D000104670470146202903DB7E2901DC0122EB
:1013E00000E00022104670470146212903DB7E29D8
:1013F00001DC012200E0002210467047014620294E
:1014000003DB7E2901DC012200E00022012A35D124
:10141000202909D00D2907D00A2905D00C2903D08D
:10142000092901D00B2901D1012200E000222ABBA9
:10143000412903DB5A2901DC012200E00022012AB4
:1014400008D0612903DB7A2901DC012200E00022B7
:10145000012A01D1012200E00022012A08D030290E
:1014600003DB392901DC012200E00022012A01D13D
:10147000012200E000220AB9012200E00022104609
:10148000704701464AB2002A01DB1F2901DD7F298E
:1014900001D1012200E00022104670470146412997
:1014A00003DB5A2901DC012200E00022012A02D1DB
:1014B00001F1200200E00A46D0B2704701466129DE
:1014C00003DB7A2901DC012200E00022012A02D19B
:1014D000A1F1200200E00A46D0B27047F0B5044600
:1014E0000B462046FFF7EAFF05461846FFF7E6FFE2
:1014F0000646B54201D1012000E0002007463846EB
:10150000F0BD0000F748F849016001464160002144
:101510008160C160016141618161C16101620163FA
:10152000C1624162F1498163C1634FF4D8410164F2
:1015300041640146EE4A116070472DE9F0410346CF
:101540000C4617460FB9BDE8F08103B9FBE700254B
:10155000002202E02D022543521C042AFAD3384609
:1015600003F0030C1946BCF1000F08D0624603E0FB
:1015700001F8014B401E521C08B1042AF8D30E4654
:1015800001E020C6001F0428FBD2314602E001F82A
:10159000014B401E0028FAD100BFD4E730B5054604
:1015A0000C46224600212846FFF7C7FF30BD2DE933
:1015B000F04F85B0074688469146B9F1000F02D139
:1015C00005B0BDE8F08F07B9FAE7B8F1000F00D118
:1015D000F6E746463D46AE4205D94A4641463846BC
:1015E00001F0EAFBECE74C463819451E08EB040015
:1015F000461EA81B04900498042834D305F0030069
:10160000029006F003010191DDE90110884201D149
:10161000012000E0002000900098012823D10298CA
:10162000032810D0029840B2039008E016F8010990
:1016300005F80109641E0398401E40B2039014B1DE
:1016400003980028F2DAA5F1030AA6F1030B04E0DF
:101650005BF804094AF80409241F042CF8D20AF1A3
:1016600003050BF1030604E016F8010905F801096A
:10167000641E002CF8D100BFA2E72DE9F84F804688
:101680008946154615B90120BDE8F88FB8F1000F5D
:1016900001D10020F8E7B9F1000F01D10020F3E7F4
:1016A0000124294608EB050209EB050302F0030CAF
:1016B00003F0030BDC4501D1012000E00020009085
:1016C0000098012829D1BCF1000F12D0E2460AE0AF
:1016D000521E5B1E107893F800E0704500D0002485
:1016E000491EAAF1010A012C03D111B1BAF1000F70
:1016F000EED1012C11D116461F4608E0361F3F1FC0
:101700003068D7F800E0704500D00024091F012C94
:1017100001D10429F2D232463B4608E0521E5B1E3C
:10172000107893F800E0704500D00024491E012C89
:1017300001D10029F2D12046A6E7F0B503460D46B7
:101740001646DA6BB2FBF6F006FB102CBCF1000F6C
:1017500002D0A6EB0C0400E000246119586C88420A
:1017600001D20020F0BDA14201D3A94201D2002044
:10177000F8E75718974201D20020F3E72244DF63CD
:10178000586C401A58641046ECE72DE9F04F81463A
:101790008C461C46B9FBF4F004FB109BBBF1000F18
:1017A00002D0A4EB0B0600E00026B2FBF4F004FB31
:1017B000102BBBF1000F02D0A4EB0B0300E00023C1
:1017C000D018ACF1010E00FB0E60871806EB020882
:1017D000B04501D3904502D20020BDE8F08FBCF1A6
:1017E000010F22D9D5189D4201D3954201D2002084
:1017F000F3E7ACF1010000FB05F1A94203D39942E4
:1018000001D3914201D20020E7E701EB020A8A45A9
:1018100001D3924501D20020DFE7474503D38F4231
:1018200001D3574501D20020D7E73846D5E72DE947
:10183000FE4F0746884615461C46002000901CB9FE
:1018400000BFFFF7A7FB00BF0DB901AD00BF00202F
:1018500028602FB942F2747020800020BDE8FE8F0E
:10186000B8F1000F04D142F2757020800020F5E736
:10187000DFF8709000BF00BFFFF7E4FA009000BFF0
:10188000FFF715FB00BFD9F83C000290D9F844B02F
:1018900043463A4601210298FFF777FF064676B99C
:1018A00000BFFFF7E5FA00BF0098FFF7CFFA00BFCF
:1018B00000BF2F6042F2E37020800020CEE75E453B
:1018C00018D900BFFFF7D4FA00BF0098FFF7BEFA9F
:1018D00000BF00BFA6EB0B00286042F2E270208040
:1018E0000020BBE7501E002048454150981E0020B4
:1018F00044000020424639464846FFF71EFF824614
:10190000BAF1000F0ED100BFFFF7B2FA00BF009886
:10191000FFF79CFA00BF00BF2E6042F2E270208009
:1019200000209BE700BFFFF7A3FA00BF0098FFF776
:101930008DFA00BF00BF42F21070208050468DE744
:101940002DE9FC5F06460D461446002000901CB9A8
:1019500000BFFFF71FFB00BF2DB942F2757020805A
:101960000020BDE8FC9FB5F5805F04D942F2757098
:1019700020800020F5E726B942F211702080002077
:10198000EFE700BF00BFFFF75DFA009000BFFFF771
:101990008EFA00BFFC493068084440B1FB49084456
:1019A00018B1FB49084408B900BF0EE000BF00BFF2
:1019B000FFF75EFA00BF0098FFF748FA00BF00BFCC
:1019C00042F2887020800020CBE700BFD6F8049058
:1019D000D9F8380008B1484600E0EE488246DAF807
:1019E0004470DAF83CB000BFFFF742FA00BF00983D
:1019F000FFF72CFA00BF00BF012D0DD9BBFBF5F09E
:101A000005FB10B8B8F1000F02D0A5EB080000E00C
:101A10000020019001983F1A42F210702080384651
:101A20009FE770B504460D462A462146D948FFF780
:101A300087FF0646304670BD70B504460D461DB999
:101A400000BFFFF7A7FA00BF1CB942F2117028804F
:101A500070BDCD484042206000206060A060E06022
:101A600020616061A061E0612062A0626063206328
:101A7000E0626062A063E0632064606442F2107020
:101A8000288000BFE4E72DE9FF4F91B00446DDE96F
:101A90002095002000901DB900BFFFF77BFA00BF22
:101AA000B9F1000F02D10DF1100900BF0020C9F8F3
:101AB000000029462046FFF7BFFF288842F2107138
:101AC000884202D015B0BDE8F08F129828B1139863
:101AD00018B942F27E702880F4E7149818B942F2DF
:101AE00092702880EEE71E9818B942F29370288011
:101AF000E8E71F9818B942F294702880E2E7A648F8
:101B0000006818B942F2E7702880DBE7A14810901E
:101B10004FF0000A00BF00BFFFF794F9009000BF2C
:101B2000FFF7C5F900BF1298002863D1109E109EE0
:101B30000E96109E3746109EF06B0B9004231A46AB
:101B400014990B98FFF721FE0390039860B900BF2A
:101B5000FFF78EF900BF0098FFF778F900BF00BFCC
:101B600042F2E3702880ADE703990B9808440A908D
:101B7000DDE91E2314990A98FFF707FE8346BBF19F
:101B8000000F0CD100BFFFF773F900BF0098FFF7FB
:101B90005DF900BF00BF42F2E370288092E703982E
:101BA00000EB0B0A0398824501D3DA450CD200BF43
:101BB000FFF75EF900BF0098FFF748F900BF00BFCC
:101BC00042F2E37028807DE71098D0F84480C24547
:101BD0007ED900BFFFF74CF900BF0098FFF736F938
:101BE00000BF00BFAAEB0800C9F8000042F2E27093
:101BF000288067E712980990DDE912010844401E29
:101C00000890DDE9081081420CD200BFFFF730F9DF
:101C100000BF0098FFF71AF900BF00BF42F29770AB
:101C200028804FE7002600200E905B4807683CE0C4
:101C3000B96B1298814205D1396C1398814201D158
:101C40003E4634E0B86B0790396CB86B0844401ED0
:101C50000690DDE90701814200D228E00799099842
:101C6000884203D8DDE9071088420FD20799099806
:101C7000884203D306990898884207D9069909989B
:101C8000884210D80699089888420CD300BFFFF705
:101C9000EFF800BF0098FFF7D9F800BF00BF42F28D
:101CA0007F7028800EE70E97FF68002FC0D100BF1D
:101CB00046B926461298A0631298E06313982064F0
:101CC000139860641098C06B0B9004231A4600E0D0
:101CD00064E014990B98FFF758FD0390039860B9DE
:101CE00000BFFFF7C5F800BF0098FFF7AFF800BFCF
:101CF00000BF42F2E3702880E4E61098D0F84480F8
:101D00000398404511D900BFFFF7B2F800BF009813
:101D1000FFF79CF800BF00BF0398A0EB0800C9F8CC
:101D2000000042F2E2702880CCE6F06B0A90DDE918
:101D30001E2314990A98FFF728FD8346BBF1000F74
:101D40000CD100BFFFF794F800BF0098FFF77EF8B2
:101D500000BF00BF42F2D9702880B3E6D6F84480B5
:101D6000C3451BD900BFFFF783F800BF0098FFF7FA
:101D70006DF800BF00BFABEB0800C9F8000042F2ED
:101D8000D87028809EE60000B2B0B1BAFEFFFEF81F
:101D9000080A0EFC501E0020440000201498800009
:101DA0000290042202991098FFF7C7FC0D900D983D
:101DB00038BB1098D0F8448000BFFFF759F800BF37
:101DC0000098FFF743F800BF00BF129848B9C2451A
:101DD00004D9AAEB0800C9F800000EE0C9F800A079
:101DE0000BE00298404505D90298A0EB0800C9F81D
:101DF000000002E00298C9F8000042F2E270288078
:101E000060E60020019034E03046DDE91E12FFF765
:101E100094FC0C900C9820BBF06B0A90D6F8448090
:101E200000BFFFF725F800BF0098FFF70FF800BFCD
:101E300000BF01991498401A0590DDE91E23059909
:101E40000A98FFF7A2FC8246C24504D9AAEB080013
:101E5000C9F8000001E0C9F800A042F2D87028805B
:101E600030E6019ADDE90C0141F822000198401C9E
:101E70000190149901988842C6D3A6420CD10E98BD
:101E8000A060E7600E9810B10E98C46001E0FB48B6
:101E900004605FB1BC6009E070690F9026610F9823
:101EA000606174610F9808B10F980461F448206074
:101EB00066600A98A0610A985844401EE0610D9837
:101EC0002062C4F828B01F9860631E98206314989D
:101ED000E0621498606200BFFEF7CAFF00BF00987E
:101EE000FEF7B4FF00BF00BF42F21070288000BFB1
:101EF000E8E52DE9F04105460C4600271CB900BF76
:101F0000FFF748F800BF2DB942F211702080002081
:101F1000BDE8F08100BF00BFFEF794FF074600BF99
:101F2000FEF7C5FF00BFD7492868084440B1D6492D
:101F3000084418B1D549084408B902E00FE000BFD1
:101F400000BF00BFFEF794FF00BF3846FEF77EFFDC
:101F500000BF00BF42F2887020800020D8E700BF99
:101F60006E6A00BFFEF784FF00BF3846FEF76EFFC3
:101F700000BF00BF42F2107020803046C8E72DE954
:101F8000F04104460E4615464FF000081DB900BF4B
:101F9000FFF700F800BF2CB942F211702880002032
:101FA000BDE8F08126B942F2937028800020F7E75F
:101FB00000BF00BFFEF746FF804600BFFEF777FF79
:101FC00000BFAF49206888420DD000BFFEF750FF28
:101FD00000BF4046FEF73AFF00BF00BF42F28870E4
:101FE00028800020DCE7206BB0420DD200BFFEF756
:101FF0003FFF00BF4046FEF729FF00BF00BF42F28F
:10200000937028800020CBE7606A68B900BFFEF7B4
:102010002FFF00BF4046FEF719FF00BF00BF42F28E
:10202000DE7028800020BBE7E16A606A88420DD933
:1020300000BFFEF71DFF00BF4046FEF707FF00BFD1
:1020400000BF42F2957028800020A9E7606A401E18
:102050006062D4E9080150F8217000BFFEF708FF64
:1020600000BF4046FEF7F2FE00BF00BF42F2107014
:102070002880384694E72DE9F04704460F46154678
:102080004FF000091DB900BFFEF784FF00BF2CB957
:1020900042F2117028800020BDE8F08700BF00BF29
:1020A000FEF7D0FE814600BFFEF701FF00BF744976
:1020B000206888420DD000BFFEF7DAFE00BF484618
:1020C000FEF7C4FE00BF00BF42F2887028800020E7
:1020D000E2E7E16A606A88420DD300BFFEF7C8FEFE
:1020E00000BF4846FEF7B2FE00BF00BF42F2957047
:1020F00028800020D0E7E06AC01B461EE06AB0429C
:102100000DD800BFFEF7B4FE00BF4846FEF79EFEA6
:1021100000BF00BF42F2957028800020BCE7606AD3
:10212000B0420DD900BFFEF7A3FE00BF4846FEF740
:102130008DFE00BF00BF42F2957028800020ABE703
:10214000206A50F8268000BFFEF792FE00BF484686
:10215000FEF77CFE00BF00BF42F2107028804046B0
:102160009AE72DE9F04F02460C469569D2F81CB06B
:10217000AC4201D35C4502D90020BDE8F08F536B1F
:10218000B5FBF3F003FB105111B1A3EB010C01E01F
:102190004FF0000C176BB7FBF3F003FB107109B1A4
:1021A0005E1A00E0002605EB0C08A4EB080A07EB1A
:1021B0000609BAFBF9F009FB10A008B9012000E0FC
:1021C000002086467046D8E72DE9F04704460F46C2
:1021D00015464FF0000A1DB900BFFEF7DBFE00BF39
:1021E00024B942F211702880BDE8F0871FB942F28D
:1021F00011702880F8E700BF00BFFEF723FE82467B
:1022000000BFFEF754FE00BF1D49206888420CD075
:1022100000BFFEF72DFE00BF5046FEF717FE00BFC1
:1022200000BF42F288702880DEE739462046FFF77B
:1022300098FF8046B8F1010F0CD000BFFEF718FEE2
:1022400000BF5046FEF702FE00BF00BF42F297708B
:102250002880C9E700261CE0206A50F82600B84212
:1022600016D100BFFEF704FE00BF5046FEF7EEFD9C
:1022700000BF00BF42F298702880B5E744000020FC
:10228000504F4F4CB2B0B1BAFEFFFEF8080A0EFC38
:10229000761C606AB042DFD8E16A606A88420CD37B
:1022A00000BFFEF7E5FD00BF5046FEF7CFFD00BFC3
:1022B00000BF42F2DD70288096E74FF00008666AA2
:1022C00008E0206A50F82690B94502D14FF0010885
:1022D00003E0761CE06AB042F3D800BFB8F1010F0A
:1022E00007D1D4E9080150F82100216A41F82600FD
:1022F0000CE000BFFEF7BCFD00BF5046FEF7A6FD98
:1023000000BF00BF42F2887028806DE7D4E9080161
:1023100040F82170606A401C606200BFFEF7A8FDB3
:1023200000BF5046FEF792FD00BF00BF42F21070A2
:10233000288000BF58E72DE9F84F04460F461546A0
:10234000002000904FF0FF3B1DB900BFFEF722FEBA
:1023500000BF2CB942F2117028805846BDE8F88FB2
:1023600027B942F2117028805846F7E700BF00BF36
:10237000FEF768FD009000BFFEF799FD00BF4349DE
:10238000206888420DD000BFFEF772FD00BF0098A4
:10239000FEF75CFD00BF00BF42F2887028805846FF
:1023A000DCE739462046FFF7DCFE8046B8F1010F36
:1023B0000DD000BFFEF75CFD00BF0098FEF746FDA4
:1023C00000BF00BF42F2977028805846C6E700263B
:1023D00013E0206A50F82600B8420DD100BFFEF786
:1023E00047FD00BF0098FEF731FD00BF00BF42F27D
:1023F000987028805846B1E7761C606AB042E8D8E9
:10240000E16A606A88420DD300BFFEF731FD00BF6C
:102410000098FEF71BFD00BF00BF42F2DD70288070
:1024200058469BE74FF00008666A08E0206A50F8BB
:102430002690B94502D14FF0010803E0761CE06A0E
:10244000B042F3D800BFB8F1010F11D1E06A401ECD
:10245000A0EB060A00BFFEF70BFD00BF0098FEF7D9
:10246000F5FC00BF00BF42F210702880504675E7AF
:1024700000BFFEF7FDFC00BF0098FEF7E7FC00BFC1
:1024800000BF42F288702880584667E7504F4F4C93
:1024900010B502460B461146002001E0491C401CC5
:1024A00019B10C780CB19842F8D310BD30B5044680
:1024B0004FF0FF312046FFF7EBFF0546284630BDC1
:1024C00070B504460D4616460CB9002070BD0DB916
:1024D0000020FBE721462A46002304E0107808701C
:1024E000491C521C5B1C21B11AB1107808B1B342CF
:1024F000F4D301B10AB90020E8E7B34201D20020C9
:1025000008702046E2E770B504460D464FF0FF32F2
:1025100029462046FFF7D4FF0646304670BD70B509
:1025200003460C4615460BB9002070BD0CB90020BF
:10253000FBE70DB91846F8E7194600E0491C11B150
:1025400008780028FAD109B90020EEE722460026D3
:1025500004E010780870491C521C761C21B11AB195
:10256000107808B1AE42F4D301B10AB90020DCE71B
:10257000002008701846D8E770B504460D464FF0A5
:10258000FF3229462046FFF7CAFF0646304670BD97
:102590002DE9F04305460B469446BCF1000F02D1ED
:1025A0000020BDE8F08335B90BB90020F9E71878B1
:1025B00042421046F5E713B92A781046F1E729465A
:1025C0001C460F4626467F1C761C4FF0000805E08F
:1025D000491C641C7F1C761C08F10108087894F8DB
:1025E0000090484505D1087818B117B10EB1E04503
:1025F000EED3E04501D10020D3E7087894F80090AD
:10260000484505D0087894F80090A0EB09020BE04B
:10261000087808B9002207E02FB90EB9002203E0BC
:102620003078424200E03A781046BAE770B5044686
:102630000D464FF0FF3229462046FFF7A9FF064618
:10264000304670BD2DE9F74F82B080460E460498A3
:1026500018B9002005B0BDE8F08FB8F1000F09D11E
:102660000EB90020F6E73078FEF718FF07467C42E7
:102670002046EFE73EB998F80000FEF70FFF054649
:102680002C462046E6E7C146B246C846C3465646F3
:10269000CDF804A0D8460BF1010B019E701C0190EF
:1026A000C84699F80000FEF7F9FE054656469AF826
:1026B0000000FEF7F3FE07460020009015E009F148
:1026C00001090AF1010A0BF1010B0198401C01906C
:1026D0000098401C009099F80000FEF7DFFE0546C8
:1026E0009AF80000FEF7DAFE0746BD420BD199F8D2
:1026F000000040B1BBF1000F05D0019818B104995A
:1027000000988842DBD304990098884201D10020C8
:10271000A0E7BD4201D0EC1B16E00DB9002413E088
:10272000BBF1000F0AD1019808B900240CE001990F
:102730000878FEF7B3FE07467C4205E09BF80000F0
:10274000FEF7ACFE05462C46204683E770B50446EE
:102750000D464FF0FF3229462046FFF773FF06462D
:10276000304670BD30B504460B4615460CB9002006
:1027700030BD0BB90020FBE72146002201E0491CD7
:10278000521C31B1087820B10878A84201D09A4291
:10279000F5D309B90020EBE79A4201D30020E7E71F
:1027A0000878A84201D00020E2E70846E0E770B5CB
:1027B00005460C4622464FF0FF312846FFF7D2FF70
:1027C0000646304670BD2DE9F04305460E461746D5
:1027D00015B90020BDE8F0830EB90020FAE72C46B9
:1027E000A6F1010949462046FFF752FE80464444BF
:1027F0000CB90020EEE700E0641EAC4202D0207865
:10280000B842F9D12078B84201D00020E2E7204652
:10281000E0E770B505460C4622464FF0FF312846EA
:10282000FFF7D1FF0646304670BD70B504460D4631
:1028300016460CB9002070BD0BB90020FBE72146FD
:102840001A4605E00878A84200D10E70491C521EB5
:1028500019B1087808B1002AF4D12046EBE7F0B5A9
:1028600004460D4616464FF0FF33324629462046B1
:10287000FFF7DBFF07463846F0BD2DE9FF4F064660
:102880000F4615461EB9002004B0BDE8F08F0FB901
:102890000020F9E70DB90020F6E7681C00B101E05F
:1028A0004FF0FF30039029463046FFF7F1FD804698
:1028B00038460399FFF7ECFD04460CB93046E3E7D0
:1028C000444501D90020DFE706EB080BBBF1000F00
:1028D00001D10020D8E707EB040BBBF1000F01D1B9
:1028E0000020D1E7A8EB040002904FF0000900207F
:1028F000019000BF06EB090000902246394600987F
:10290000FFF746FE8246BAF1000F01D1012000E038
:102910000020019009F10109019810B90298814540
:10292000E8D9BAF1000F01D00020ADE70098ABE77D
:1029300070B504460D464FF0FF3229462046FFF79A
:102940009CFF0646304670BD2DE9FF4F8DB00F4607
:1029500015461A9E1D9818B9002011B0BDE8F08FD9
:1029600000200390012F01DA01200390022D01D3F2
:10297000242D01D90120039096B33046FEF72AFD9D
:1029800002900298012802D00120039028E0302E06
:1029900026D0A6F13000C0B207901B98012804D0C1
:1029A000A6F14100C0B2069003E0A6F16100C0B2FA
:1029B00006900A2D02D80798A84209DB0A2D09D9EA
:1029C00007980A2804D3A5F10A000699884201D97C
:1029D000012000E0002005900598012800D1039017
:1029E0001D9C0398002846D1DDF834A0DDF834A002
:1029F000CDF830A001200B9007E00B98401CC0B22E
:102A00000B900C98B0FBF5F00C900C98A842F4D207
:102A10001098012800D100E0002009900B99099836
:102A20000844B84225DC002001900B98B84201DA36
:102A30000B9800E038460A903EB1B8460A98391A19
:102A40000998081AC0B2089006E0DDE909100844A8
:102A500000F0FF08002008900898002806DD302EBE
:102A600001D1012000E00020049004E00020049047
:102A700001E001200390039800B1B84644441C983B
:102A800008B100202070641E4FF0000941E0039857
:102A9000A8BBBAF1000F02D1B9F1000F1CD1BAFBEB
:102AA000F5F005FB10A000F0FF0BBBF10A0F04D2FC
:102AB0000BF1300004F801090BE01B98012804D049
:102AC0000BF1370004F8010903E00BF1570004F89B
:102AD0000109BAFBF5FA1AE01098012810D1049800
:102AE00008B9019828B1049850B1A8F101004845EF
:102AF00006D12D2004F801090120019007E003E030
:102B00002EB104F8016902E03F2004F8010909F13F
:102B10000109C145BBD3039808B100201DE71D98EA
:102B20001BE72DE9FF5F05460E4617461C46DDE90B
:102B30000F9ADDF8388000233A46314628468DE862
:102B40001007FFF701FF8346584604B0BDE8F09F29
:102B50002DE9FF4F85B0044689461F46DDE913ABDA
:102B6000002C02DA6542012601E025460026129873
:102B70003346CDE902ABCDE9007049462846079AB5
:102B8000FFF7E2FE8046404609B0BDE8F08F2DE930
:102B9000FF4F8BB0064689461546B9F1000F02D1AA
:102BA0000DF1240900BFC9F80060189810B907A8F2
:102BB000189000BF0021189801701EB900200FB0B6
:102BC000BDE8F08F012D01D0242D01D90020F6E7BA
:102BD00034462078FEF7ECFB039004E0641C207878
:102BE000FEF7E6FB039003980128F7D020782B2806
:102BF00002D02D280BD103E0641C4FF0000B09E03C
:102C00000E98012800D1641C4FF0010B02E04FF038
:102C1000000B00BF00BF0A9425B1082D1CD0102D59
:102C200036D11EE02078302814D1641C2078582832
:102C300002D078280BD100BF102567783846FEF700
:102C40009BFB8246BAF1010F00D1641C01E008250C
:102C500000BF00E00A251CE02078302800D1641C69
:102C600017E02078302812D1641C2078582802D030
:102C700078280AD100BF67783846FEF77DFB824688
:102C8000BAF1010F00D1641C00E000BF00BF00E0FA
:102C900000BF00BF4FF0000800200290019040E00C
:102CA00027783846FEF71AFB05900598012836D19B
:102CB0003846FEF74DFB06900698012804D1A7F18F
:102CC0003000C0B208900FE03846FEF72DFB0490AC
:102CD0000498012804D1A7F15700C0B2089003E07E
:102CE000A7F13700C0B208900898A84214DA0298F9
:102CF00080B9304850F82500404509D308FB05F855
:102D0000089880440898804504D20120029001E090
:102D100001200290641C04E00120019001E00120E8
:102D2000019001980028BBD00298012801D14FF0F2
:102D3000FF380A98844202D0C9F8004001E0C9F87F
:102D40000060189880F800B0404638E7F8B50446AF
:102D50000D4616460020034632462946009020467E
:102D6000FFF715FF07463846F8BD2DE9FC4105463B
:102D70000E46174601A801233A46314600902846E0
:102D8000FFF705FF04469DF8040040B9B4F1004F79
:102D900002D36FF0004000E02046804607E0B4F127
:102DA000004F02D34FF0004000E0604280464046B2
:102DB000BDE8FC8168B70008002800D170470029F1
:102DC00000D17047002A00D170472DE9F81F00F0AC
:102DD000030301F00304A34211D1C3F1040303F080
:102DE0000303012B1DD3012A00D2F2E011F8014B9D
:102DF00000F8014BA3F10103A2F10102F1E700F099
:102E0000010301F00104A34200D094E0012B44D35C
:102E100011F8014B00F8014BA3F10103A2F10102EB
:102E2000F4E7B2F5B47F26D3B1E8F81FA0E8F81FA5
:102E3000B1E8F81FA0E8F81FB1E8F81FA0E8F81FF4
:102E4000B1E8F81FA0E8F81FB1E8F81FA0E8F81FE4
:102E5000B1E8F81FA0E8F81FB1E8F81FA0E8F81FD4
:102E6000B1E8F81FA0E8F81FB1E8F81FA0E8F81FC4
:102E7000A2F5B472D5E7282A06D3B1E8F81FA0E876
:102E8000F81FA2F12802F6E7042A06D351F8043B02
:102E900040F8043BA2F10402F6E7202A42D331F8BD
:102EA000023B20F8023B31F8023B20F8023B31F8AC
:102EB000023B20F8023B31F8023B20F8023B31F89C
:102EC000023B20F8023B31F8023B20F8023B31F88C
:102ED000023B20F8023B31F8023B20F8023B31F87C
:102EE000023B20F8023B31F8023B20F8023B31F86C
:102EF000023B20F8023B31F8023B20F8023B31F85C
:102F0000023B20F8023B31F8023B20F8023B31F84B
:102F1000023B20F8023B31F8023B20F8023BA2F1D1
:102F20002002BAE7022A06D331F8023B20F8023B1E
:102F3000A2F10202F6E7102A42D311F8013B00F891
:102F4000013B11F8013B00F8013B11F8013B00F88F
:102F5000013B11F8013B00F8013B11F8013B00F87F
:102F6000013B11F8013B00F8013B11F8013B00F86F
:102F7000013B11F8013B00F8013B11F8013B00F85F
:102F8000013B11F8013B00F8013B11F8013B00F84F
:102F9000013B11F8013B00F8013B11F8013B00F83F
:102FA000013B11F8013B00F8013B11F8013B00F82F
:102FB000013B11F8013B00F8013BA2F11002BAE716
:102FC000012A06D311F8013B00F8013BA2F10102EE
:102FD000F6E7BDE8F81F704770470000002400BF07
:102FE0001DE000BF00BFFDF72DFF044600BFFDF749
:102FF0005EFF00BFFA480068401CF9490860F948C4
:103000000068401CF749086000BFFDF731FF00BFB2
:103010002046FDF71BFF00BF00BF08F07BF9E0E78B
:1030200010B58AB004460020ED4908600B2000214D
:103030000591CDE9070406910846EB490968EB4A7A
:103040001268EB4B1B68CDE90132CDE903101F205C
:103050000023AFF27702E7A10090EB4805F013F9E7
:103060000AB010BD00210AE001EB4102E74B03EB7F
:10307000820000220281026042604A1CD1B22029F3
:10308000F2D3704770B5044608F04CF90020E049CF
:103090000870E0490870E0490870E0490860E049BC
:1030A0000860E0490870E0490870E0490870E049AC
:1030B0000860E0490860E0490860E0490870E048BD
:1030C00000680A21B0FBF1F0DE490860DE480068C4
:1030D00058B1DE48056845B1DB48066803E0761E56
:1030E000002028602D1D002EF9D10020D84908604D
:1030F000D8490860D8490860D8490860D8490860AC
:10310000D8490860D8490860D849087003F00EFA19
:10311000FFF7A8FF204601F054FF208800B170BDE2
:10312000204602F0BDFA208800B1F8E7204602F000
:10313000C9FA208800B1F2E7204603F0DFF92088C1
:1031400000B1ECE7204603F01BFF208800B1E6E762
:10315000204604F0B3FB208800B1E0E7204606F0EB
:10316000C9FE208800B1DAE7204602F0BEF82088C8
:1031700000B1D4E72046FFF753FF208800B1CEE727
:10318000204607F020F8208800B1C8E7204604F068
:10319000A1FE208800B1C2E7204608F016F820887A
:1031A00000B1BCE700F042FEFFF716FF00BFB6E734
:1031B00098480078012800D0704795480078FA2890
:1031C00000DBF9E792480078401C9149087000BF85
:1031D000F2E710B500248F480078012800D010BD18
:1031E00000BFFDF72FFE044600BF8948007828B9CC
:1031F00000BF2046FDF72AFE00BFF0E784480078B4
:10320000401E8349087008460078002805DD00BF8D
:103210002046FDF71BFE00BFE1E77F48007800284D
:1032200005DD00BF2046FDF711FE00BFD7E703F024
:1032300087F97D4908700846007800EB4000734923
:1032400051F820007649086008460068734909680B
:10325000884205D100BF2046FDF7F8FD00BFBEE75C
:103260006F480068D0F89000401C6D490968C1F8AB
:1032700090007F480068401C7D4908604FF08050F6
:103280007C49086000BF2046FDF7E0FD00BF00BF9D
:10329000A5E710B500245E480078002800DD10BDC9
:1032A0005D480078002800DDF9E700BFFDF7CAFDA2
:1032B000044600BF03F044F95B49087008460078F3
:1032C00000EB4000514951F820005549086008467C
:1032D000006852490968884205D100BF2046FDF7C1
:1032E000B5FD00BFDBE74E480068D0F89000401CF9
:1032F0004B490968C1F890005D480068401C5C4972
:1033000008604FF080505B49086000BF2046FDF721
:103310009DFD00BF00BFC2E710B53F4800780128FF
:1033200003D1FDF767FD4249086010BD70B5044642
:10333000002537480078002803DD46F662502080DB
:1033400070BD34480078012803D045F6896020809C
:10335000F6E731480078FA2803DB45F2092020809F
:10336000EEE700BF00BFFDF76DFD054600BFFDF7AE
:103370009EFD00BF28480078401C27490870FFF7D1
:10338000CBFF00BFFDF774FD00BF2846FDF75EFDD3
:1033900000BF00BF0020208000BFD1E710B51E484D
:1033A000007880B9FDF726FD21490968441A2148B3
:1033B0000068A04201D21F4804601F480068A04274
:1033C00001D21D48046010BD70B5044600251048A8
:1033D0000078002850DD46F66550208070BD000062
:1033E00068000020D400002004B8000800B80008DD
:1033F000FCB7000875432F4F532D494949204964B4
:103400006C65205461736B00289F0020C4A00020CD
:103410006C00002074000020BC000020140100207B
:1034200018010020A2000020A3000020A40000201A
:10343000B0000020B4000020B8000020C40000202C
:103440005CB80008C00000202CB8000828B80008AC
:103450004C000020500000205400002058000020A4
:103460005C0000206000002064000020F2000020CA
:10347000E800002004ED00E0FA480078012803D0BD
:1034800045F68960208070BDF748007818B946F687
:1034900064502080F7E700BF00BFFDF7D3FC05466E
:1034A00000BFFDF704FD00BFEF480078401EEE4965
:1034B00008700846007800280CDD00BFFDF7D8FC36
:1034C00000BF2846FDF7C2FC00BF00BF46F66350B0
:1034D0002080D8E7FFF762FF00BFFDF7C9FC00BFFF
:1034E0002846FDF7B3FC00BF00BFFFF7D2FE002067
:1034F000208000BFC7E72DE9F04105460C4616467F
:10350000002700BF00BFFDF79DFC074600BFFDF789
:10351000CEFC00BF012D03D00020D449087002E08A
:103520000120D249087014B1D148046006E0D148A6
:1035300000680A21B0FBF1F0CD49086000BFFDF73B
:1035400097FC00BF3846FDF781FC00BF00BF00209C
:103550003080BDE8F08110B501460C8924B1012C02
:1035600003D0022C0CD101E000BF14E008684A68C7
:1035700002610024C4601461D0600A6048600AE0FF
:1035800008684A68C36800241C61C4600261D06096
:103590000B60486000BF00BF10BD2DE9F04104463C
:1035A0000027B5480078002804DD48F2D14020808B
:1035B000BDE8F081AC480078002803DD46F6635092
:1035C0002080F5E7A9480078012803D046F67B1053
:1035D0002080EDE700BF00BFFDF734FC074600BFC9
:1035E000FDF765FC00BFA548007800EB4000A4494A
:1035F00001EB8006308902280CDA00BFFDF738FCA9
:1036000000BF3846FDF722FC00BF00BF46F67A1027
:103610002080CDE73046FFF79EFF3568686D18B90A
:1036200093480068A86501E0686DA86500BFFDF7D4
:103630001FFC00BF3846FDF709FC00BF00BFFFF7C5
:1036400028FE0020208000BFB2E710B50446854860
:103650000078E8B902F074FF8A49087008460078DB
:10366000864908708748007800EB4000844951F88B
:1036700020008549086008460068844908600120E8
:103680007849087007F09EFF43F69920208002E0F9
:1036900045F68A60208010BD01460020088047F270
:1036A0005D60704730B548B14568C1F8C45000F15D
:1036B0000804226893681D6AC56113E091F83450CC
:1036C000022D02D0072D08D103E071A5C1F8C45026
:1036D00007E071A5C1F8C45003E072A5C1F8C45059
:1036E00000BF00BF30BDF0B58E6896F8375007892F
:1036F0003FB90127078100274F600F6001604160DB
:1037000023E007897F1C0781026806E0946894F82B
:103710003770AF4200DD02E05268002AF6D100BFE8
:1037200032B900274F6043680B60596041600CE07C
:1037300017682FB9116000270F604A60016004E02C
:1037400013680B604A6059601160F0BD10B5C28704
:10375000016300230AE000244C600C600C614C61A2
:103760000C83CC61886020315C1CA3B29342F2DBF5
:1037700010BD2DE9F041054695F8370000EB4000FB
:103780003F4901EB80042F69EE6887B946B90020F4
:1037900020812060606095F8370002F0F3FE0EE0B3
:1037A0002089401E208100203061266007E02089AA
:1037B000401E2081FE600EB9676000E03761002086
:1037C0002861E860BDE8F08138B504460D4685B152
:1037D0006B4602222946204606F036FDBDF8000061
:1037E00018B9032084F8360006E0022084F8360079
:1037F00002E0022084F836002046FFF7BAFF38BD09
:103800002DE9F04105460C4616461F461F48006844
:1038100080F8346000201D49096881F83500394678
:103820001A480068FFF7D0FF6CB104F10808EC609B
:103830000122294615480068FFF788FF29464046BF
:10384000FFF751FF06E0002010490968C8870F49BB
:10385000096808630D4801682046FFF723FFBDE8AB
:10386000F081000074000020BC000020C400002093
:10387000C00000205CB800086C000020A2000020FE
:10388000C4A00020A3000020180100201401002083
:103890005461736B205100005461736B2053656D4C
:1038A000000000002000000010B50489012C03D1A5
:1038B00000240460446011E00C6824B94A680024C4
:1038C000146002600AE04C6824B90B6800245C6054
:1038D000436003E00B684A685A6013600489641E01
:1038E000048100244C600C6010BD2DE9F0410446B9
:1038F000256BE68F0AE0D5F80C8008F10807294609
:103900003846FFF7D1FF2035701E86B2002EF2DC5C
:103910000020E0872063BDE8F08130B50346086BE6
:10392000CC8F08E0C5689D4202D10361C26104E00A
:103930002030651EACB2002CF4DC00BF30BD10B5E9
:1039400090F8373003EB4303F64C04EB83010B890B
:103950003BB901230B810023C36003610860486009
:1039600009E00B895B1C0B810B68C36000230361BA
:103970000A681061086010BD10B590F8373003EB8D
:103980004303E84C04EB83010B893BB901230B8112
:103990000023C36003610860486008E00B895B1C7A
:1039A0000B810023C3604A680261D060486010BD8B
:1039B00010B5044694F8370002F0D4FD94F83700AF
:1039C000D9490978884203D12046FFF7D5FF02E0A4
:1039D0002046FFF7B4FF10BD10B50446204606F0A0
:1039E000AFFA94F8360000F0040010B92046FFF753
:1039F000DFFF10BD70B505460C46164694F836003C
:103A0000082847D2DFE800F0040508090607272840
:103A100000BF00BF00BF3EE000BF94F834000328A1
:103A200004D1324621462846FFF777FF0020E065A3
:103A3000A4F86000266415B12046FFF756FF204623
:103A4000FFF7CAFF00203434A0700120607000200E
:103A500004F834091FE000BF94F83400032804D1AF
:103A6000324621462846FFF758FF0020E065A4F8BB
:103A70006000266415B12046FFF737FF204606F0A8
:103A80005FFA04203434A07001206070002004F834
:103A9000340900E000BF00BF70BD30B5AFF2FC15C7
:103AA000C1F8C45000F1080422681AB193681D6A75
:103AB000C56102E0AFF21425C56130BD2DE9F043C8
:103AC00004460F4684F83770256BB4F83E8013E047
:103AD000D5F80C9009F108063089012807D9294644
:103AE0003046FFF7E1FE29463046FFF7FCFD203562
:103AF000A8F101001FFA80F8B8F1000FE8D1BDE885
:103B0000F0830021016041600181704703895B1CE3
:103B1000038103684B6000230B60026802B11160EF
:103B200001600389012B00D14160704730B5034625
:103B3000086BCC8F08E0C5689D4202D10361C26169
:103B400004E02030651EACB2002CF4DC00BF30BDB8
:103B500070B506460C46154694F83600082845D23E
:103B6000DFE800F0040508090607262700BF00BFAC
:103B700000BF3CE000BF94F83400032804D12A467B
:103B800021463046FFF7D2FF0020E065A4F8600030
:103B900025642046FFF7A9FE2046FFF71DFF002001
:103BA0003434A07002206070002004F834091EE054
:103BB00000BF94F83400032804D12A462146304639
:103BC000FFF7B4FF0020E065A4F8600025642046FC
:103BD00006F0B6F92046FFF788FE04203434A070C2
:103BE00002206070002004F8340900E000BF00BF2C
:103BF00070BDF0B50446059E086BCD8F0AE0C7681E
:103C0000A74204D1046142610383C66104E020300D
:103C10006F1EBDB2002DF2DC00BFF0BD2DE9F843F0
:103C200006460C4617469846089D94F83600082824
:103C300050D2DFE800F00405080906072B2C00BF6E
:103C400000BF00BF47E000BF94F83400032807D14D
:103C500043463A46214630460095FFF7CAFF03E047
:103C6000E765A4F86080256436B12046FFF73DFE85
:103C700021463046FFF711FF2046FFF7ADFE00203A
:103C80003434A070607004F8340924E000BF94F864
:103C90003400032807D143463A4621463046009572
:103CA000FFF7A7FF03E0E765A4F8608025642046DE
:103CB00006F046F936B12046FFF717FE214630469A
:103CC000FFF7EBFE04203434A0700020607004F88D
:103CD000340900E000BF00BFBDE8F88310B5002440
:103CE00000BFFDF7AFF8044600BF00200F49087081
:103CF0000F481049086008460068D0F89000401C42
:103D00000968C1F890000C480068401C0A49086026
:103D10004FF080500949086000BF2046FDF796F833
:103D200000BF10BDC4A00020A2000020A3000020FE
:103D3000F09F002018010020E800002004ED00E0C2
:103D400070B50546002635480078012800D070BDC2
:103D500000BF00BFFDF776F8064600BFFDF7A7F8E5
:103D600000BF2C684CB900BFFDF782F800BF304699
:103D7000FDF76CF800BF00BFE9E72948844209D18C
:103D800000BFFDF775F800BF3046FDF75FF800BFD4
:103D900000BFDCE7A06D10B1A06D401EA065A06D56
:103DA00048B100BFFDF764F800BF3046FDF74EF89C
:103DB00000BF00BFCBE72889022809DA00BFFDF762
:103DC00057F800BF3046FDF741F800BF00BFBEE71F
:103DD00014480078002809DD00BFFDF749F800BF4E
:103DE0003046FDF733F800BF00BFB0E72846FFF7C5
:103DF000B2FB2C68606D18B90B480068A06501E043
:103E0000606DA06500BFFDF733F800BF3046FDF7D9
:103E10001DF800BF00BF00BF99E70000C4000020EC
:103E2000289F0020BC000020C0000020254A264911
:103E3000264A274A2749284A2848294A294A2A4AF5
:103E40002A4A2B482B482C482C4A2D482D4A2E48CC
:103E50002E4A2F482F4830483048314A314A324A9A
:103E60003248334A334A344834483548354836486E
:103E700036483748374A384A384A394A39483A483A
:103E80003A483B4A3B4A3C4A3C483D483D483E490B
:103E90003E483F4A3F4A404A404A414A414A424AD4
:103EA0004248434A434A44484448454A454A4648AA
:103EB000464A474A47484848484800BF00BF00BFF5
:103EC00070470000A0B8000808BA0008A1B80008B0
:103ED000A2B80008A4B80008A8B80008ACB8000848
:103EE000A9B80008D4B80008D5B80008D6B80008AA
:103EF000D8B80008DAB80008DCB80008DEB8000856
:103F0000E0B8000800B9000802B9000804B90008C8
:103F100006B9000808B900080AB900080CB9000879
:103F200038B9000839B900083AB900083CB90008A6
:103F30003EB900083FB9000840B9000842B900087E
:103F400044B9000846B9000848B900084AB9000851
:103F50004CB900087CB900087DB900087EB900089A
:103F60007FB9000880B9000882B9000884B9000848
:103F7000ACB90008ADB90008AEB90008AFB9000887
:103F8000B0B90008B2B90008B4B90008B8B900085F
:103F9000B9B90008BAB90008BBB90008BCB9000833
:103FA000BDB90008BEB90008BFB90008C0B9000813
:103FB000C2B90008C3B90008C4B90008C6B90008EE
:103FC000C8B90008C9B90008CCB9000800BA00088F
:103FD00001BA000802BA000804BA000806BA0008CC
:103FE000FCA1C16100214161FB49096811B90021AF
:103FF000816105E0F84909688161F749096848610C
:10400000F549086070472DE9F04104460E46174611
:104010001D464FF00008F1480078002804DD42F604
:10402000E1602880BDE8F0811CB945F6C3502880C6
:10403000F8E700BF00BF00BFFCF704FF804600BFE9
:10404000FCF735FF00BFE6480078401CE4490870E3
:1040500008460078012801D1FFF75EF900BFFCF7A0
:1040600007FF00BF4046FCF7F1FE00BF00BF00BFE6
:10407000DC482060666027620020606204F108006E
:10408000FFF73FFD2046FFF7ABFFD7480088401CF5
:10409000D549088000BF00BF00BFFCF7D3FE8046B3
:1040A00000BFFCF704FF00BFCD480078401ECC499C
:1040B00008700846007808B9FFF770F900BFFCF7F0
:1040C000D7FE00BF4046FCF7C1FE00BF00BF00BFE7
:1040D0000020288000BFA5E770B50446C3482060D3
:1040E000C3A060600020206204F108052846FFF7A5
:1040F00008FD70BD426981693AB9B74B196009B1D1
:1041000000234B610023836109E019B90023936107
:10411000436104E091614A61002383614361704718
:104120002DE9FC5F05468846144600200090AB4808
:104130000078002805DD43F2C92020800020BDE87A
:10414000FC9F25B945F6C35020800020F7E7B8F161
:10415000000F03D0B8F1010F02D100E000BF04E06E
:1041600045F6256020800020E9E700BF9D492868CA
:10417000884204D045F6C45020800020DFE700BF0D
:1041800000BF00BFFCF75EFE009000BFFCF78FFE93
:1041900000BF93480078401C914908700846007899
:1041A000012801D1FFF7B8F800BFFCF761FE00BF9E
:1041B0000098FCF74BFE00BF00BF00BF05F10809E7
:1041C000B9F808603746B8F1000F03D0B8F1010F15
:1041D00074D182E0002F44D12846FFF78BFF82483C
:1041E0000088401E804908802846FFF775FF00BF01
:1041F00000BF00BFFCF726FE009000BFFCF757FE93
:1042000000BF77480078401E75490870084600785E
:10421000D0B9FFF7C3F87848008800280BDD00BF4D
:10422000FCF726FE00BF0098FCF710FE00BF00BFA1
:10423000FFF754FD11E000BFFCF71AFE00BF009825
:10424000FCF704FE00BF08E000BFFCF711FE00BF52
:104250000098FCF7FBFD00BF00BF00BF00202080DE
:104260003AE000BF00BF00BFFCF7ECFD009000BFCC
:10427000FCF71DFE00BF5A480078401E58490870E0
:1042800008460078D8B9FFF789F85B48008800280D
:104290000BDD00BFFCF7ECFD00BF0098FCF7D6FD7E
:1042A00000BF00BFFFF71AFD12E000BFFCF7E0FD02
:1042B00000BF0098FCF7CAFD00BF09E04CE000BF5A
:1042C000FCF7D6FD00BF0098FCF7C0FD00BF00BFA3
:1042D00000BF47F25F10208079E0FCF78BFD019072
:1042E0000AE0D9F800A0DAF808B059462846019A41
:1042F000FFF72EFC701E86B2002EF2D12846FFF783
:10430000F9FE39480088401E374908802846FFF7E3
:10431000E3FE00BF00BF00BFFCF794FD009000BFAC
:10432000FCF7C5FD00BF2E480078401E2C490870E0
:104330000846007808B9FFF731F800BFFCF798FD90
:1043400000BF0098FCF782FD00BF00BF00BFFEF772
:10435000A0FF002020803AE000BF00BF00BFFCF7B4
:1043600071FD009000BFFCF7A2FD00BF1C48007863
:10437000401E1B49087008460078D0B9FFF70EF8B8
:104380001D48008800280BDD00BFFCF771FD00BF51
:104390000098FCF75BFD00BF00BFFFF79FFC11E03A
:1043A00000BFFCF765FD00BF0098FCF74FFD00BFA4
:1043B00008E000BFFCF75CFD00BF0098FCF746FD7D
:1043C00000BF00BF00BF45F62560208000BF00BFD2
:1043D0003846B4E6200000008C0000206C0000206D
:1043E000BC000020464C4147900000204E4F4E45F7
:1043F0003F464C4147000000800000202DE9F0417D
:1044000006460F4614461D46DDF81880FE48006833
:10441000C0F88040FC480068A0F888500020FA49A5
:104420000968C1F884004346012239463046FFF747
:10443000E7F9BDE8F0812DE9F04F8BB005468846DD
:1044400093469946DDE9147400200190EF48007806
:10445000002806DD46F2AE10208000200BB0BDE83B
:10446000F08F25B945F6C35020800020F6E748F2CA
:104470000101A9EB0100894536D01ADC40F2011197
:10448000A9EB010089452BD00CDCB9F1010F23D039
:10449000B9F1020F21D0B9F1040F1FD0B9F1080F03
:1044A0002AD11CE001281CD003281BD0072823D1C7
:1044B00019E0B0F5807F1BD006DC012815D0032859
:1044C00014D0072818D112E0A0F2011088B10228F8
:1044D00010D0062810D10EE000BF00BF00BF00BF03
:1044E00000BF00BF00BF00BF00BF00BF00BF00BFD4
:1044F00000BF00BF00BF04E045F62560208000201B
:10450000ACE700BFC2492868884204D045F6C450D1
:1045100020800020A2E709F4807010B14FF0010A5A
:1045200001E04FF0000A0FB10020386009F00F00E1
:104530000A9000BF00BFFCF785FC019000BFFCF7AC
:10454000B6FC00BF0A9801287ED002287DD004283E
:1045500002D008287AD182E0286A00EA0806464597
:1045600019D1BAF1010F02D1286AB0432862A648D6
:104570000068C0F884600FB1686A386000BFFCF75B
:1045800077FC00BF0198FCF761FC00BF00BF002072
:104590002080304662E709F4004068B100BFFCF7B4
:1045A00067FC00BF0198FCF751FC00BF00BF46F25A
:1045B000B0102080002051E79648007800280DDDDB
:1045C00000BFFCF755FC00BF0198FCF73FFC00BFA3
:1045D00000BF46F66350208000203FE700BF8D48B3
:1045E0000078401C8B49087008460078012801D1EA
:1045F000FEF792FE00BFFCF73BFC00BF0198FCF702
:1046000025FC00BF00BF00BF4B464246294602A81A
:10461000CDF800B0FFF7F2FE00BF00BF00BFFCF70F
:1046200011FC019000BFFCF742FC00BF7948007804
:10463000401E784908700846007808B9FEF7AEFEBB
:1046400000BFFCF715FC02E087E00EE18BE100BF44
:104650000198FCF7FBFB00BF00BF00BF91E1286A97
:1046600000EA0806CEB1BAF1010F02D1286AB043C0
:10467000286265480068C0F884600FB1686A3860D5
:1046800000BFFCF7F5FB00BF0198FCF7DFFB00BFA4
:1046900000BF002020803046E0E609F4004068B109
:1046A00000BFFCF7E5FB00BF0198FCF7CFFB00BFA4
:1046B00000BF46F2B01020800020CFE655480078B9
:1046C00000280DDD00BFFCF7D3FB00BF0198FCF70D
:1046D000BDFB00BF00BF46F6635020800020BDE652
:1046E00000BF4C480078401C4A49087008460078D2
:1046F000012801D1FEF710FE00BFFCF7B9FB00BF97
:104700000198FCF7A3FB00BF00BF00BF4B46424629
:10471000294602A8CDF800B0FFF770FE00BF00BF29
:1047200000BFFCF78FFB019000BFFCF7C0FB00BF90
:1047300038480078401E374908700846007808B9A4
:10474000FEF72CFE00BFFCF793FB00BF0198FCF7BF
:104750007DFB00BF00BF00BF13E1286A28EA000606
:10476000464519D1BAF1010F02D1286A30432862B7
:1047700025480068C0F884600FB1686A386000BFDF
:10478000FCF776FB00BF0198FCF760FB00BF00BFA1
:1047900000202080304661E609F4004068B100BF87
:1047A000FCF766FB00BF0198FCF750FB00BF00BFA1
:1047B00046F2B0102080002050E61648007800280D
:1047C0000DDD00BFFCF754FB00BF0198FCF73EFB7A
:1047D00000BF00BF46F66350208000203EE600BFC9
:1047E0000C480078401C0B490870084600780128E6
:1047F00001D1FEF791FD00BFFCF73AFB00BF019825
:10480000FCF724FB00BF07E0140100206C0000202F
:10481000464C4147BC00002000BF00BF4B4642460B
:10482000294602A8CDF800B0FFF7E8FD00BF00BFA1
:1048300000BFFCF707FB019000BFFCF738FB00BF8F
:10484000F8480078401EF74908700846007808B913
:10485000FEF7A4FD00BFFCF70BFB00BF0198FCF7BF
:10486000F5FA00BF00BF00BF8BE0286A28EA000607
:10487000CEB1BAF1010F02D1286A30432862EA486A
:104880000068C0F884600FB1686A386000BFFCF748
:10489000EFFA00BF0198FCF7D9FA00BF00BF002073
:1048A00020803046DAE509F4004068B100BFFCF72B
:1048B000DFFA00BF0198FCF7C9FA00BF00BF46F25B
:1048C000B01020800020C9E5D648007800280DDD12
:1048D00000BFFCF7CDFA00BF0198FCF7B7FA00BFA4
:1048E00000BF46F6635020800020B7E500BFCD48EA
:1048F0000078401CCB49087008460078012801D197
:10490000FEF70AFD00BFFCF7B3FA00BF0198FCF701
:104910009DFA00BF00BF00BF4B464246294602A891
:10492000CDF800B0FFF76AFD00BF00BF00BFFCF785
:1049300089FA019000BFFCF7BAFA00BFB9480078C5
:10494000401EB84908700846007808B9FEF726FDF1
:1049500000BFFCF78DFA00BF0198FCF777FA00BFA3
:1049600000BF00BF0DE000BFFCF782FA00BF019856
:10497000FCF76CFA00BF00BF45F6256020800020E0
:104980006CE500BFFEF785FC00BF00BFFCF75AFADC
:10499000019000BFFCF78BFA00BFA348006890F8B5
:1049A000350030B101280CD002282CD003283CD18E
:1049B00019E01FB19C480068006C3860002020801E
:1049C00040E01FB198480068006C386000BFFCF7F9
:1049D0004FFA00BF0198FCF739FA00BF00BF46F25A
:1049E000A91020802EE00FB10020386000BFFCF736
:1049F0003FFA00BF0198FCF729FA00BF00BF47F259
:104A0000D92020801EE01FB187480068006C386004
:104A100000BFFCF72DFA00BF0198FCF717FA00BFA2
:104A200000BF45F6C25020800CE000BFFCF720FA22
:104A300000BF0198FCF70AFA00BF00BF46F62E60DF
:104A4000208000BF00BF208808B1002006E576481E
:104A50000068D0F88460BAF1010F22D10A980128C9
:104A60000BD002280AD0042802D008280AD100E07E
:104A700000BF286AB043286212E000BF286A3043B2
:104A800028620DE000BFFCF7F3F900BF0198FCF7C6
:104A9000DDF900BF00BF45F6256020800020DDE481
:104AA00000BF00BFFCF7E4F900BF0198FCF7CEF9A6
:104AB00000BF00BF002020803046CFE42DE9F05F2A
:104AC00005460E4614464FF0000A58480078002864
:104AD00005DD46F2AA1020800020BDE8F09F25B930
:104AE00045F6C35020800020F7E74EB1B6F5807F31
:104AF00007D0B6F5004F05D0B6F5014F04D102E05E
:104B000000BF00BF00BF04E045F625602080002004
:104B1000E3E700BF46492868884204D045F6C45000
:104B200020800020D9E700BF00BFFCF78BF9824648
:104B300000BFFCF7BCF900BF05F10807388968B968
:104B400000BFFCF795F900BF5046FCF77FF900BFA6
:104B500000BF46F2AB1020800020BEE700BF314806
:104B60000078401C2F49087008460078012801D1C0
:104B7000FEF7D2FB00BFFCF77BF900BF5046FCF705
:104B800065F900BF00BF00BF4FF00008FCF732F925
:104B900083460FE03868D0F808905A4649462846C0
:104BA000FEF728FF08F101001FFA80F8B6F5807FB4
:104BB00000D002E038890028ECDC00BF00BF00BF55
:104BC00000BFFCF73FF9824600BFFCF770F900BF59
:104BD00014480078401E134908700846007808B948
:104BE000FEF7DCFB00BFFCF743F900BF5046FCF7C3
:104BF0002DF900BF00BF00BF06F4004008B9FEF762
:104C000048FB00202080404667E770B50446002638
:104C10000648007800280DDD46F2AE102080002006
:104C200070BD0000BC000020140100206C000020BA
:104C3000464C414700BF00BFFCF704F9064600BFE1
:104C4000FCF735F900BFE2480068D0F8845000BF97
:104C5000FCF70EF900BF3046FCF7F8F800BF00BFC4
:104C6000002020802846DBE770B504460E46154636
:104C700034342665002060702070E560A078343CF4
:104C8000082816D2DFE800F004050809070610110D
:104C900000BF00BF00BF0DE000BF2046FEF79CFE36
:104CA000002084F8360005E000BF042084F83600B8
:104CB00000E000BF00BF2046FEF717FE70BD2DE9E3
:104CC000F04F85B00446894692469B46DDF8388011
:104CD0000020009000BF00BFFCF7B4F8009000BFB8
:104CE000FCF7E5F800BFBAF1000F0AD0BAF1010FE6
:104CF0000DD0BAF5004F05D06FF40040504460B9B4
:104D000006E000BF206A40EA0900206216E000BF0A
:104D1000206A20EA0900206210E000BFFCF7A8F832
:104D200000BF0098FCF792F800BF00BF45F6256071
:104D3000A8F80000002005B0BDE8F08F00BFC4F85F
:104D400024B004F1080001900198008968B900BFFF
:104D5000FCF78EF800BF0098FCF778F800BF00BFA2
:104D60000020A8F80000206AE5E700BF9948007815
:104D7000401C9849087008460078012801D1FEF7C8
:104D8000CBFA00BFFCF774F800BF0098FCF75EF8A0
:104D900000BF00BF00BF01980768BD6889E0786860
:104DA000029095F8880000F00F0003900398012806
:104DB00021D002282ED0042802D0082836D10EE0B7
:104DC000206AD5F8801000EA0106D5F88000B042CC
:104DD00004D15A4631462846FFF746FF63E0206A71
:104DE000D5F8801000EA010626B15A463146284619
:104DF000FFF73AFF57E0D5F88000216A20EA010664
:104E0000D5F88000B04204D15A4631462846FFF713
:104E10002BFF48E0D5F88000216A20EA010626B180
:104E20005A4631462846FFF71FFF3CE000BF00BF4F
:104E300000BFFCF707F8009000BFFCF738F800BF90
:104E400064480078401E6349087008460078D0B96D
:104E5000FEF7A4FA6048008800280BDD00BFFCF7CD
:104E600007F800BF0098FBF7F1FF00BF00BFFEF797
:104E700035FF11E000BFFBF7FBFF00BF0098FBF719
:104E8000E5FF00BF08E000BFFBF7F2FF00BF00989E
:104E9000FBF7DCFF00BF00BF00BF43F6FF20A8F810
:104EA0000000002047E700BF029F0FB1BD6800E08F
:104EB0000025002D7FF473AF00BF00BF00BFFBF7DC
:104EC000C1FF009000BFFBF7F2FF00BF4148007830
:104ED000401E404908700846007808B9FEF75EFA9F
:104EE00000BFFBF7C5FF00BF0098FBF7AFFF00BF97
:104EF00000BF00BF0AF4004008B9FEF7CAF900BFBE
:104F000000BFFBF79FFF009000BFFBF7D0FF00BF83
:104F1000206A049000BFFBF7ABFF00BF0098FBF7CF
:104F200095FF00BF00BF0020A8F80000049802E72A
:104F30002DE9FF470546884617461C4635B945F614
:104F4000C3502080002004B0BDE8F0874FB1012F8E
:104F500008D0B7F5004F06D06FF40040384420B9B0
:104F600002E000BF00BF00BF04E045F625602080DE
:104F70000020E8E700BF19492868884204D045F6B8
:104F8000C45020800020DEE7FBF734FF06461448BB
:104F9000007800280BDD00231A4629460F48CDE98A
:104FA0000087CDE9026400F021F80020CBE733460A
:104FB0003A46414628460094FFF781FE814648461E
:104FC000C1E70021074A1160074A1180018070473C
:104FD00014010020BC00002080000020464C414706
:104FE0006C0000208C000020900000202DE9F84F7C
:104FF00004460D4616461F46DDE90BABDDF828904A
:10500000DDF834800020009000BF00BFFBF71AFFDE
:10501000009000BFFBF74BFF00BFE8480088E8495D
:10502000098888423EDAE5480088401CE349088048
:10503000E44800880988884203DAE0480088E149AA
:105040000880E14800680460DF4800688560DE4849
:105050000068C660DC4800680782DB480068C0F86A
:105060001490D9480068A0F818A0D7480068C0F884
:105070001CB0D54800684068D34908600120D34976
:105080000881D34808604860002001F06BFAD148DD
:10509000007818B1CF480078CF4908700020A8F8F0
:1050A000000008E0CD480088401CCC49088044F24C
:1050B0005360A8F8000000BFFBF7DAFE00BF0098BD
:1050C000FBF7C4FE00BF00BFBDE8F88F3EB5C44883
:1050D00000680068C34A811A904279D00FDCC24947
:1050E000084400283ED0C1490844A8B1C04908443A
:1050F000002860D0BF49084400286AD13FE0BE487C
:105100000844002850D0BD490844002862D0BC495A
:1051100008440028F1D110E002A8B14D00902D689C
:10512000EB69AF4D2D682A8BAD4D2D686969AC4D8B
:105130002D68A868FFF7C3FD7AE002A9A8480068B7
:10514000C069A74DCDE900012D682B8BA44D2D68BA
:105150002A8AA34D2D68E968A14D2D68A86801F041
:10516000EEFD65E09E4B1B68DA699D4B1B68198B51
:105170009B4B1B68986802AB02F045FA58E002A905
:1051800097480068C069964DCDE900012D682B8BCA
:10519000934D2D682A8A924D2D68E968904D2D68AF
:1051A000A86803F01BFD43E08D490968886802A9DF
:1051B00003F00BFF3CE08A4B1B68DA69884B1B68E5
:1051C000198B874B1B68986802AB04F0CFF92FE06E
:1051D00007E02CE082490968886802A904F060FDB4
:1051E00026E07D49097801EB4101784A02EB810014
:1051F000FEF7A6FD7A48006802AB0021C26981482B
:1052000004F0B4F980480068401E7F4908600846F1
:10521000006858B97D4800680860FBF7EBFD04465C
:1052200002AB224600217A4804F0A0F900E000BF5A
:1052300000BF3EBD002700BF56E0002652E000BF81
:1052400000BFFBF7FFFD074600BFFBF730FE00BFC6
:105250005A48008898B900205C4908810860486075
:1052600001F090F900BFFBF703FE00BF3846FBF7E3
:10527000EDFD00BF00BFFEF70CF8012632E000BFD5
:10528000FBF7F6FD00BF3846FBF7E0FD00BF00BFAF
:10529000FBF7B0FD0546FFF719FFFBF7ABFD441B1D
:1052A0005C480068A04201D25A48046000BF00BFB9
:1052B000FBF7C8FD074600BFFBF7F9FD00BF4848F4
:1052C00000684068464908603C480088401E3B49E9
:1052D000088000BFFBF7CCFD00BF3846FBF7B6FDEA
:1052E00000BF00BF002EAAD0A7E7F0B589B00546E1
:1052F00000203A4908804848006820B944F25260CA
:10530000288009B0F0BD2E480088022803DA44F254
:1053100054602880F5E700203E4908603E48046854
:105320002646203600270CE03C4820600020A06084
:10533000E060208260612083666020342036781C23
:1053400087B21F4800888742EEDB203C324806685F
:1053500066601D48066022480660002017490880E4
:10536000184908802E48006818B944F25560288012
:10537000C7E72C4800682C490968884203D244F2E8
:1053800056602880BDE7032000210591CDE907057F
:10539000069124480068254A1268214B1B68CDE914
:1053A0000301CDE9013200910B46AFF2771220A143
:1053B000074802F068FF00BFA3E70000800000205C
:1053C00010B800088200002078000020C4A000204F
:1053D000F09F0020A2000020A400002084000020F4
:1053E0007C0000205449434BADBAB2BE0DF90BFA14
:1053F000F2F8F7FF0006F6FF00F7FDF700FFEFFFFA
:1054000003FE0FFE0CA30020100100200C01002061
:10541000D4A30020880000200CB800084E4F4E4551
:1054200018B8000820B8000858B800081CB80008D0
:1054300075432F4F532D49494920495352205175E7
:10544000657565205461736B000000000021816167
:105450009749096811B90021C16105E094490968BB
:10546000C1619349096888619149086070472DE9D5
:10547000FF4F83B0044615461F46DDE91096002015
:1054800000908C480078002805DD45F2B960308036
:1054900007B0BDE8F08F1DB945F2BB603080F7E77B
:1054A000022F03DA45F2BC603080F1E7B9F1040F56
:1054B00003D245F2C1603080EAE74FF0030ABAF147
:1054C000000F0DD005EA0A0018B145F2BB6030802C
:1054D000DEE709EA0A0018B145F2C1603080D7E77B
:1054E000AB46A846781E80B201900020029007E0EB
:1054F000C844CBF80080C3460298401C80B202909A
:10550000DDE901108842F3DB0020CBF8000000BF8A
:1055100000BF00BFFBF796FC009000BFFBF7C7FC85
:1055200000BF65480078401C634908700846007851
:10553000012801D1FDF7F0FE00BFFBF799FC00BF89
:105540000098FBF783FC00BF00BF00BF5B482060F2
:105550000498A0606560E560A7826782A4F8109057
:105560002046FFF773FF56480088401C54490880C6
:1055700000BF00BF00BFFBF765FC009000BFFBF75A
:1055800096FC00BF4C480078401E4B490870084606
:10559000007808B9FDF702FF00BFFBF769FC00BF08
:1055A0000098FBF753FC00BF00BF00BF0020308015
:1055B00000BF6DE72DE9F04104460D4600272CB9E8
:1055C00045F2BF6028800020BDE8F08100BF00BF29
:1055D000FBF738FC074600BFFBF769FC00BFA08A59
:1055E00068B900BFFBF744FC00BF3846FBF72EFC50
:1055F00000BF00BF45F2C26028800020E4E7E668F3
:105600003068E060A08A401EA08200BFFBF730FC3B
:1056100000BF3846FBF71AFC00BF00BF00202880FF
:105620003046D1E72DE9F04104460E4615460027E5
:1056300024B945F2BF602880BDE8F0811EB945F26B
:10564000BE602880F8E700BF00BFFBF7FBFB074602
:1056500000BFFBF72CFC00BFA08A618A88420CDBEC
:1056600000BFFBF705FC00BF3846FBF7EFFB00BFB0
:1056700000BF45F2BA602880DEE7E0683060E6608F
:10568000A08A401CA08200BFFBF7F2FB00BF384697
:10569000FBF7DCFB00BF00BF0020288000BFCBE78A
:1056A0000021034A1160064A118001807047000002
:1056B000940000206C000020BC0000204D454D20CF
:1056C0009800002070B50146854D2D681DB945F242
:1056D0001E750D8070BD834D2D881DB945F21D7559
:1056E0000D80F7E77E4D28682A6810327D4D2D88A1
:1056F0006D1EACB2002308E0026000254560058104
:10570000C560103010325D1CABB2A342F4DB002543
:10571000056045600581C560714D2D68724E35602C
:10572000704D2D88B5800025F58035810D8000BF36
:10573000D0E710B5014648894B89002B17DD0A6870
:10574000694B1B681360684C4B6823602346DB88F9
:105750004C891B1B644CE38023469B884C89234463
:10576000614CA38000234B818B810B604B6010BD8B
:105770000181002242818281026042607047F0B55F
:1057800004460D46608940B90020288002B11060AF
:1057900046F2925018800020F0BD61684E6808897A
:1057A00028800AB1C868106008686060606818B92D
:1057B00000202060608102E06089401E60814A48CC
:1057C00000680860484801608088401C464FB880E7
:1057D0003846C088401EF880002018803046DBE73D
:1057E0002DE9F0410D46DDE90674B0F80AC0B0F8C5
:1057F0000880C44505DB46F2935CA4F800C0BDE810
:10580000F081DFF8E4C0BCF804C0BCF1000F04D1A3
:1058100045F21D7CA4F800C0F1E7DFF8CCC0DCF84D
:105820000010DFF8C480D1F800C0C8F800C0C4463A
:10583000BCF804C0ACF1010CA8F804C0C446BCF824
:1058400006C00CF1010CA8F806C0C446BCF808C09C
:10585000B8F80680C44507DADFF88CC0BCF806C08B
:10586000DFF88480A8F808C0B0F80AC0BCF1000FC7
:105870000AD1016041604FF0010CA0F80AC04FF05E
:10588000000CC1F800C017E003F0100CBCF1000FD1
:1058900007D10668316001604FF0000CC1F800C00C
:1058A00004E0D0F804C0C1F800C04160B0F80AC0FC
:1058B0000CF1010CA0F80AC0B0F80CC0B0F80A80D6
:1058C000C44503DAB0F80AC0A0F80CC04D600A81E4
:1058D000CF604FF0000CA4F800C000BF8FE70000BD
:1058E0003CB8000834B80008B8A00020F9A1C16194
:1058F00000214161F849096811B90021816105E081
:10590000F54909688161F44909684861F24908600C
:1059100070472DE9F04104460E4615460027EF4832
:105920000078002804DD42F6E1602880BDE8F081BF
:105930001CB945F6C3502880F8E700BF00BF00BF80
:10594000FBF780FA074600BFFBF7B1FA00BFE44857
:105950000078401CE249087008460078012801D10F
:10596000FDF7DAFC00BFFBF783FA00BF3846FBF710
:105970006DFA00BF00BF00BFDA48206066600020FB
:10598000206284F82500A062202084F8240004F11D
:105990000800FEF7B6F82046FFF7A8FFD2480088B7
:1059A000401CD149088000BF00BF00BFFBF74AFA86
:1059B000074600BFFBF77BFA00BFC9480078401ECE
:1059C000C74908700846007808B9FDF7E7FC00BF32
:1059D000FBF74EFA00BF3846FBF738FA00BF00BFAE
:1059E00000BF0020288000BFA0E710B50446BF48D4
:1059F0002060BFA060600020206284F82500A062C3
:105A0000202084F8240004F10800FEF77AF810BD85
:105A1000426981693AB9B04B196009B100234B6101
:105A20000023836109E019B900239361436104E015
:105A300091614A6100238361436170472DE9FE4F04
:105A400005468946144600200090A44800780028A6
:105A500005DD43F2C92020800020BDE8FE8F25B976
:105A600045F6C35020800020F7E7B9F1000F03D0BE
:105A7000B9F1010F02D100E000BF04E045F6256056
:105A800020800020E9E700BF96492868884204D0BA
:105A900045F6C45020800020DFE700BF00BF00BFF4
:105AA000FBF7D0F9009000BFFBF701FA00BF8C486C
:105AB0000078401C8A49087008460078012801D106
:105AC000FDF72AFC00BFFBF7D3F900BF0098FBF7F6
:105AD000BDF900BF00BF00BF05F1080ABAF80870A1
